:020000040800F2
:10000000600600206D0100087501000877010008F6
:10001000790100087B0100087D0100080000000054
:100020000000000000000000000000007F01000848
:10003000810100080000000083010008850100081C
:100040008701000887010008870100088701000870
:100050008701000887010008870100088701000860
:100060008701000887010008870100088701000850
:100070008701000887010008870100088701000840
:100080008701000887010008870100088701000830
:100090008701000887010008870100088701000820
:1000A0008701000887010008870100088701000810
:1000B0008701000887010008870100088701000800
:1000C00087010008870100088701000887010008F0
:1000D00087010008870100088701000887010008E0
:1000E00087010008870100088701000800F002F876
:1000F00000F02CF80AA090E8000C82448344AAF196
:100100000107DA4501D100F021F8AFF2090EBAE893
:100110000F0013F0010F18BFFB1A43F0010318473B
:10012000C4110000D4110000002300240025002683
:10013000103A28BF78C1FBD8520728BF30C148BF4A
:100140000B6070471FB51FBD10B510BD00F031F832
:100150001146FFF7F7FF00F067FC00F04FF803B41B
:10016000FFF7F2FF03BC00F057F800000948804792
:1001700009480047FEE7FEE7FEE7FEE7FEE7FEE789
:10018000FEE7FEE7FEE7FEE704480549054A064BA1
:1001900070470000C1090008ED0000086000002061
:1001A0006006002060020020600200207047704757
:1001B0007047754600F02CF8AE4605006946534678
:1001C00020F00700854618B020B5FFF7DDFFBDE839
:1001D00020404FF000064FF000074FF000084FF0AE
:1001E000000BAC46ACE8C009ACE8C009ACE8C009FB
:1001F000ACE8C00921F007018D46704710B50446F0
:10020000AFF300802046BDE81040FFF7A8BF000014
:10021000004870470000002001491820ABBEFEE7EF
:10022000260002007047000080B582B08DF80700FC
:100230008DF806109DF807009DF80610022200F0C8
:100240008BF802B080BD000080B582B08DF8070049
:100250008DF806109DF807009DF80610002200F0AA
:100260006FF902B080BD000080B582B08DF8070044
:100270008DF806109DF807009DF8061000F016FA9C
:1002800002B080BD84B08DF80E008DF80D10029282
:1002900000208DF807009DF80D00102805DBFFE712
:1002A0009DF807008DF80F0052E00298002846D014
:1002B000FFE79DF80E000146009140B1FFE700986E
:1002C000012815D0FFE70098022822D032E040F63E
:1002D0000800C4F2010001689DF80D20012000FA19
:1002E00002F31940D140029A11708DF8070025E001
:1002F00040F60840C4F2010001689DF80D2001207D
:1003000000FA02F31940D140029A11708DF80700EB
:1003100014E041F20800C4F2010001689DF80D20CC
:10032000012000FA02F31940D140029A11708DF8B1
:10033000070003E000208DF80700FFE703E000203E
:100340008DF80700FFE79DF807008DF80F00FFE725
:100350009DF80F0004B0704782B08DF807008DF84B
:1003600006108DF8052000208DF804009DF8070088
:100370000146009148B1FFE7009801284BD0FFE704
:100380000098022800F08D80D1E09DF80600072833
:100390001BDCFFE79DF8060081000F2000FA01F248
:1003A00040F60001C4F201010868904308609DF81E
:1003B00005009DF80620920000FA02F2086810433A
:1003C000086001208DF8040024E09DF806000F2845
:1003D0001BDCFFE79DF8060081000F2000FA01F208
:1003E00040F60401C4F201010868904308609DF8DA
:1003F00005009DF80620920000FA02F208681043FA
:10040000086001208DF8040003E000208DF804004E
:10041000FFE7FFE78FE09DF8060007281BDCFFE7FA
:100420009DF8060081000F2000FA01F240F600411D
:10043000C4F201010868904308609DF805009DF82A
:100440000620920000FA02F20868104308600120BA
:100450008DF8040024E09DF806000F281BDCFFE760
:100460009DF8060081000F2000FA01F240F60441D9
:10047000C4F201010868904308609DF805009DF8EA
:100480000620920000FA02F208681043086001207A
:100490008DF8040003E000208DF80400FFE7FFE77B
:1004A00049E09DF8060007281BDCFFE79DF80600E1
:1004B00081000F2000FA01F241F20001C4F20101B3
:1004C0000868904308609DF805009DF8062092009A
:1004D00000FA02F208681043086001208DF8040059
:1004E00024E09DF806000F281BDCFFE79DF80600BE
:1004F00081000F2000FA01F241F20401C4F201016F
:100500000868904308609DF805009DF80620920059
:1005100000FA02F208681043086001208DF8040018
:1005200003E000208DF80400FFE7FFE703E0002070
:100530008DF80400FFE79DF8040002B0704700004A
:1005400086B08DF816008DF815108DF81420002057
:100550008DF813009DF81500102805DBFFE79DF8C6
:1005600013008DF817009DE09DF8160001460391D9
:1005700040B1FFE70398012831D0FFE70398022834
:100580005AD086E09DF814000146029198B1FFE729
:10059000029801281ED1FFE79DF81510012000FAEE
:1005A00001F340F60C02C4F2010211681943116014
:1005B0008DF8130012E09DF81510012000FA01F3E8
:1005C00040F60C02C4F201021168994311608DF8E3
:1005D000130003E000208DF81300FFE75DE09DF8B5
:1005E00014000146019198B1FFE7019801281ED13E
:1005F000FFE79DF81510012000FA01F340F60C42C8
:10060000C4F201021168194311608DF8130012E061
:100610009DF81510012000FA01F340F60C42C4F2D7
:1006200001021168994311608DF8130003E0002066
:100630008DF81300FFE730E09DF8140001460091AB
:1006400098B1FFE7009801281ED1FFE79DF815102B
:10065000012000FA01F341F20C02C4F20102116818
:10066000194311608DF8130012E09DF81510012058
:1006700000FA01F341F20C02C4F20102116899433D
:1006800011608DF8130003E000208DF81300FFE7E0
:1006900003E000208DF81300FFE79DF813008DF8AC
:1006A0001700FFE79DF8170006B0704780B582B0CD
:1006B0008DF806008DF805109DF806009DF80510D0
:1006C00001AAFFF7DFFD20B9FFE700208DF8070042
:1006D00018E09DF8040001280AD1FFE79DF8060004
:1006E0009DF805100022FFF72BFF8DF8070009E0A9
:1006F0009DF806009DF805100122FFF721FF8DF8F7
:100700000700FFE79DF8070002B080BD82B08DF8BA
:1007100007008DF8061000208DF805009DF80600F2
:100720000146009140B1FFE70098012813D0FFE790
:10073000009802281ED02CE09DF80710012000FA36
:1007400001F341F21402C4F202021168194311606C
:100750008DF8050021E09DF80710012000FA01F353
:1007600041F21C02C4F202021168194311608DF8B3
:10077000050012E09DF80710012000FA01F341F294
:100780001802C4F202021168194311608DF80500C5
:1007900003E000208DF80500FFE79DF8050002B09A
:1007A0007047000081B000208DF8030041F2000185
:1007B000C4F20201086820F480200860086840F450
:1007C00080300860FFE741F20000C4F202000068D8
:1007D00000F400310020B0EB514F01D1FFE7F2E708
:1007E00041F20401C4F20201012008608DF8030007
:1007F0009DF8030001B0704780B584B003900020DD
:1008000000908DF80B00039842F20041C4F6741179
:1008100000F09CFC00F05AFC009A44F20003C4F281
:100820008F0300F077FA00F0CFFB01909DF80700EE
:1008300058BBFFE701984EF21401CEF200010860A8
:100840004EF21001CEF20001086840F0010008608D
:10085000FFE74EF21000CEF200000068C00300284F
:1008600001D4FFE7F5E74EF21001CEF2000108686F
:1008700020F0010008604EF21801CEF200010020C5
:10088000086001208DF80B00FFE79DF80B0004B015
:1008900080BD000080B500F001F880BD84B000206C
:1008A0000390029041F20001C4F20201086840F492
:1008B00080300860FFE741F20000C4F202000068E7
:1008C00000F400300290039801300390FFE7029992
:1008D0000020019039B9FFE70398B0F5A06018BF78
:1008E00001200190FFE70198C0070028E3D1FFE74E
:1008F00041F20000C4F2020000688003002803D522
:10090000FFE70120029002E000200290FFE702983A
:10091000012851D1FFE742F20001C4F20201086848
:1009200040F010000860086820F0070008600868C0
:1009300040F00200086041F20401C4F2020100919B
:100940000868086008680860086840F4806008600B
:10095000086820F47C100860086840F4E81008601B
:1009600041F20001C4F20201086840F080700860A2
:10097000FFE741F20000C4F2020000688001002895
:1009800001D4FFE7F5E741F20401C4F2020108686F
:1009900020F003000860086840F002000860FFE7EC
:1009A00041F20400C4F20200006800F00C000828C4
:1009B00001D0FFE7F4E700E0FFE704B07047000074
:1009C00080B541F20002C4F20202106840F001005A
:1009D000106041F20401C4F2020108680023CFF65E
:1009E000FF031840086010684FF6FF73CFF6F663F8
:1009F00018401060106820F480201060086820F40F
:100A0000FE00086041F20801C4F202014FF41F0029
:100A10000860FFF73FFF4EF60851CEF200014FF09D
:100A20000060086080BD000080B59EB00020169078
:100A30001D90FFF7B7FE022115910846FFF766FEED
:100A400015990320FFF762FE169805211791FFF70D
:100A5000EBFB169806211891FFF7E6FB1698072185
:100A60001991FFF7E1FB01211A9108220846FFF7CF
:100A700073FC17991A98FFF7D7FB18991A98FFF784
:100A8000D3FB19991A98FFF7CFFBFFE700201490CA
:100A90000521FFF7E9FB01200721FFF7E5FB14988B
:100AA0008DF87300FFE79DF87300632800F3C080A2
:100AB000FFE740F60840C4F201000068C0F34000C0
:100AC0008DF872009DF87200012840F0A480FFE7C5
:100AD0000020C4F24830FFF78FFE40F60840C4F211
:100AE00001000068C0F340008DF871009DF87100AE
:100AF000012806D1FFE70020C4F2FA30FFF77CFEA0
:100B000088E09DF87100002840F08380FFE7002016
:100B100013900521FFF798FB01200721FFF794FBB5
:100B200013988DF87000FFE79DF87000092815DC18
:100B3000FFE7002006211291FFF796FB1299012092
:100B4000FFF792FB0020C4F2FA30FFF755FEFFE7F3
:100B50009DF8700001308DF87000E5E700201190DD
:100B600006210D91FFF770FB0D9901201090FFF702
:100B70006BFB119807210E91FFF776FB109805216A
:100B80000F91FFF771FB44F20000C4F29C50FFF795
:100B900033FE0E991198FFF757FB0F991098FFF746
:100BA00053FB11988DF86F00FFE79DF86F0009283F
:100BB00015DCFFE7002006210C91FFF755FB0C998F
:100BC0000120FFF751FB0020C4F2FA30FFF714FEBA
:100BD000FFE79DF86F0001308DF86F00E5E700201A
:100BE0000A9006210991FFF72FFB099901200B902C
:100BF000FFF72AFB0A980521FFF736FB0B98072120
:100C0000FFF732FB44F20000C4F29C50FFF7F4FD02
:100C1000FFE7FFE7FFE79DF8730000F083FAFFF7B7
:100C2000EBFDFFE79DF8730001308DF873003AE7A4
:100C3000002008900521FFF707FB01200721FFF79F
:100C400003FB08988DF86E00FFE79DF86E000928F9
:100C500015DCFFE7002006210791FFF705FB079948
:100C60000120FFF701FB0020C4F2FA30FFF7C4FDBA
:100C7000FFE79DF86E0001308DF86E00E5E700207B
:100C8000069006210291FFF7DFFA029901200590F4
:100C9000FFF7DAFA069807210391FFF7E5FA0598BE
:100CA00005210491FFF7E0FA44F20000C4F29C50E1
:100CB000FFF7A2FD03990698FFF7C6FA0499059875
:100CC000FFF7C2FA06988DF86D00FFE79DF86D00FA
:100CD000092815DCFFE7002006210191FFF7C4FA7F
:100CE00001990120FFF7C0FA0020C4F2FA30FFF7A3
:100CF00083FDFFE79DF86D0001308DF86D00E5E79D
:100D0000002006210091FFF79FFA00990120FFF7CC
:100D10009BFABBE62DE9C04130B4DFF8A4C23CEA3F
:100D2000111418BF3CEA131400F0ED801CEA1114F2
:100D300081EA030544EAD57418BF1CEA131500F0D4
:100D4000C880A4EB050404F17F7404F500344FF06F
:100D5000004545EAC12145EAC32341EA505143EA2F
:100D600052534FEAC0204FEAC222994208BF904234
:100D700000F09D804FEA13650FF24416765D4FEA4E
:100D8000134506FB05F7C7F1807706FB07F74FEA27
:100D9000D737A7FB03687642A7FB06CEC8F5803895
:100DA00038BFA8F1010807FB08E6A6FB028C4FF04C
:100DB000000EE6FB03CEDCF1000CCEF1004E38BF96
:100DC000AEF1010EA6FB0C584FF00007E6FB0E87B4
:100DD000A1FB08C6A0FB07CE16EB0E064FF00005E0
:100DE00045F10005E1FB076515F1E04E7EBFA4F576
:100DF00080345FEA46066D4116F1800745F1000533
:100E00004FEA172747EA05674FEA15254FEA0666B6
:100E1000A6F1DE46B6F1805F20D9384605EBC471F5
:100E200024F0010C01EB0C11BCF1FE6F02D8F0BCF8
:100E3000BDE8008124425CBF01F5801E9EEAC47FAC
:100E400002D4F0BCBDE80081244200F13980A1F158
:100E5000C041F0BCBDE8004100F031B94FEAD020FC
:100E600040EA41504FEAD1214FEAD22242EA4352AE
:100E70004FEAD323A7FB028607FB036605FB026646
:100E80001EEA0E0F58BFA6EB0056B6EB00564FEA0F
:100E9000520E4EEAC37E18EB0E0E56EB530EBCD527
:100EA00018EB02085E417F1C55F10005B5E74FF4D1
:100EB00080154FF000074FF000064FF00008ACE738
:100EC00001F1C04101F000414FF00000F0BCBDE86D
:100ED00000810CEA131511EA0C1F00D00CE013EA94
:100EE0000C1F00F026804FF0000081EA030101F0A2
:100EF0000041F0BCBDE80081F0BCBDE8004181EAE2
:100F0000030100F0DCB8F0BCBDE8004170B500F0B2
:100F100088F800BF097EFC3E00F007B84FF00000E3
:100F200081EA030101F00041704781EA030100F00A
:100F3000C6B8F0BCBDE8004122494FF00000704740
:100F4000FFFDFBF9F7F5F4F2F0EEEDEBE9E8E6E48E
:100F5000E3E1E0DEDDDBDAD8D7D5D4D3D1D0CFCD15
:100F6000CCCBCAC8C7C6C5C4C2C1C0BFBEBDBCBB4E
:100F7000BAB9B8B7B6B5B4B3B2B1B0AFAEADACAB49
:100F8000AAA9A8A8A7A6A5A4A3A3A2A1A09F9F9E23
:100F90009D9C9C9B9A9999989797969595949393D5
:100FA000929191908F8F8E8E8D8C8C8B8B8A89896C
:100FB00088888787868585848483838282818180EF
:100FC0000000FF070000F87F4FEA1153A3F580638C
:100FD000D3F11E03A8BFD3F1200C08DB4FF0004271
:100FE00042EAC12252EA505232FA03F070470942F3
:100FF0000BD4102BC4BF0020704703F5787CBCF1E4
:10100000FF3F05D04FF0FF3070474FF000007047B2
:1010100070B500F006F800BF4992248000207047A8
:10102000F0E70EF1020E2EF0030E5EF8046B36426E
:1010300005D4012A43EB030515F5001F12D801283A
:1010400041EB010C1CF5001F0CD80ED14FEAD17CEE
:101050000CEB4C0C0CF1020C15F5001F08BF4CEB0F
:10106000D37C04E04FF0080C01E04FEAD37C0CEB9A
:101070004C0526FA05F606F00706B6F1040C06D272
:101080000EEB860CBDE870404CF0010C6047DFE8C9
:101090000CF0090B02024FF00041A1F500214FF0C6
:1010A000000070BD19461046012851EB010418BF1D
:1010B000D4F5001484BF002001F0004170BD080881
:1010C000A0F500114FEA31017047000043004FEADC
:1010D000D30C4FEA3C0C43401FBF40070CF160515A
:1010E00013F0FE4F70471CF0006F03D10CF000416D
:1010F000002070470CF0004343EA507040EACC00F7
:1011000010B500F0A4F800BF000000924FEA000103
:10111000FFF7D5BF4FF00041A1F500214FF00000CF
:1011200070470000B0FA80F310FA03F2C3F19D0398
:101130000AD0D90501EB1220530638BF704700F1E1
:10114000010008BF20F00100704700004FF47F0C41
:101150001CEAD0121EBF1CEAD11392EA0C0F93EACC
:101160000C0F00F0478090EA010F48BF42F48072F4
:101170004FF0004C4CEA00204CEA012102EB030244
:10118000A0FB0113A2F50002002918BF43F00103E0
:101190005B0028BF4FEA330342EB22425FEA132C85
:1011A0004CEBC2502EBFBCEB436FB2F57C0F7047C7
:1011B0004FEA036CBCF1004F08BF20F00100B2F50C
:1011C0007C0F38BF70470BD582F0FF0212F5803FCD
:1011D000C8BF704700F1C040D8BF00F00040704762
:1011E00000F5000C5FEA4C0C48BF7047B0F1C040FE
:1011F00000F073B80CEAD11390EA010F48BF42F433
:101200008072624538BF634504D280EA010000F075
:101210000040704710B500F01AF800BF8900013E89
:1012200000F007B800F009B85FEA410C5FEA1C6CF7
:1012300008D080EA010000F050B85FEA400C5FEA95
:101240001C6CF6D14FF00040A0F5800070470EF105
:10125000020E2EF0030E5EF8044B244204D44FEA33
:101260004102B2F17F4F11D84FEA4003B3F17F4FF3
:101270000CD80ED14FEAD07C0CEB4C0C0CF1020CCC
:10128000B2F17F4F08BF4CEBD17C04E04FF0080C6B
:1012900001E04FEAD17C0CEB4C0324FA03F404F098
:1012A0000704B4F1040C06D20EEB840CBDE8104028
:1012B0004CF0010C6047DFE80CF0070802024FF029
:1012C0000040A0F5800010BD0846420018BFD2F1D2
:1012D000807288BF00F0004010BDFF2141EAD0506D
:1012E000C0057047F41200080000002060060000EE
:0412F00028010008C9
:040000050800016D81
:00000001FF
